:100000000C94FB000C941C010C941C010C941C011E
:100010000C941C010C941C010C941C010C941C01EC
:100020000C941C010C941C010C941C010C941C01DC
:100030000C941C010C941C010C941C010C941C01CC
:100040000C941C010C941C010C941C010C941C01BC
:100050000C941C010C941C010C941C010C94820443
:100060000C941C010C9453050C94A4050C941C01D5
:100070000C941C010C941C010C941C010C941C018C
:100080000C941C010C941C010C941C010C941C017C
:100090000C94F3050C9444060C941C010C941C0164
:1000A0000C941C010C941C010C941C010C941C015C
:1000B0000C941C010C941C010C941C010C941C014C
:1000C0000C941C010C941C010C941C010C949306C0
:1000D0000C94E4060C941C010C9433070C948407D4
:1000E0000C941C010C941E010C942A0A0C94250AF1
:1000F0000C942A016E616E00696E660000407A10F1
:10010000F35A00A0724E18090010A5D4E80000E8C8
:100110007648170000E40B54020000CA9A3B000026
:1001200000E1F505000080969800000040420F00B5
:100130000000A08601000000102700000000E80376
:10014000000000006400000000000A000000000041
:100150000100000000002C76D888DC674F0823DF00
:10016000C1DFAE59E1B1B796E5E3E453C63AE651D3
:10017000997696E8E6C28426EB898C9B62ED407CFA
:100180006FFCEFBC9C9F40F2BAA56FA5F490055A96
:100190002AF75C936B6CF9676DC11BFCE0E40D47BB
:1001A000FEF520E6B500D0ED902E030094357705DE
:1001B0000080841E080000204E0A000000C80C3396
:1001C0003333330F986E12831141EF8D2114893B25
:1001D000E65516CFFEE6DB18D1844B381BF77C1DA5
:1001E000901DA4BBE424203284725E228100C9F1F8
:1001F00024ECA1E53D2711241FBECFEFD1E2DEBFE5
:10020000CDBF00E00CBF12E0A0E0B2E0EEE4FFE101
:1002100000E00BBF02C007900D92A436B107D9F7DA
:100220001CE0A4E6B2E001C01D92A636B107E1F7DA
:100230000E946F0A0C94A50F0C94000083B7817F75
:1002400083BF83B7816083BF7894889583B78E7F9F
:1002500083BFF4CFFFCF0F920FB6F8940F921F9287
:100260002F923F924F925F926F927F928F929F92C6
:10027000AF92BF92CF92DF92EF92FF920F931F93B4
:100280002F933F934F935F936F937F938F939F939E
:10029000AF93BF93CF93DF93EF93FF930DB600928D
:1002A000600C0EB60092610CE0915E03F0E0EE0F80
:1002B000FF1FE05BFC4F8091600C9091610C91837B
:1002C0008083A0914E03B0914F03109739F41FC063
:1002D0000190F081E02D309711F456C0FD0180911E
:1002E0005E0394819813F4CF54C095818D81981347
:1002F00004C08C8180935E030EC014968C91809311
:100300005E0309C014968C9180935E0304C080E064
:1003100090E00E942A01E0915E03F0E0EE0FFF1FE3
:10032000E05BFC4F808191819093610C8093600C25
:100330000090600C0DBE0090610C0EBEFF91EF911D
:10034000DF91CF91BF91AF919F918F917F916F91ED
:100350005F914F913F912F911F910F91FF90EF90DF
:10036000DF90CF90BF90AF909F908F907F906F90D5
:100370005F904F903F902F901F900F900FBE0F9067
:100380007894789408950BC014968C9180935E03B2
:10039000C2CFC081D181209709F0A7CFB3CFE09120
:1003A0004E03F0914F03309709F441C0848180934C
:1003B0005E0381E08093650CE0915E03F0E0EE0F58
:1003C000FF1FE05BFC4F808191819093610C8093D3
:1003D000600C0090600C0DBE0090610C0EBEFF9191
:1003E000EF91DF91CF91BF91AF919F918F917F91CD
:1003F0006F915F914F913F912F911F910F91FF90BE
:10040000EF90DF90CF90BF90AF909F908F907F90B4
:100410006F905F904F903F902F901F900F900FBE66
:100420000F907894089586E090E00E942A0180E081
:1004300090E00E942A0180915E030895CF93DF939C
:10044000811104C081E090E00E942A01282F30E051
:1004500097E0899FF0011124E95EFC4F8081918132
:10046000892B21F482819381892B21F084E090E013
:100470000E942A01A0914E03B0914F034FB7F89408
:100480001682558115968C911597851758F487E03B
:10049000829FF001839FF00D1124E95EFC4F1097BD
:1004A00041F4D0CF8D919C911197009781F3DC019D
:1004B000E9CF309739F28FB7F8941296CD91DC914D
:1004C0001397209739F4F0934F03E0934E03138270
:1004D000128204C0F983E883D383C28397E0929F9A
:1004E000E001939FD00D1124C95EDC4FB983A8832E
:1004F0001396FC93EE9312978FBF4FBFDF91CF916E
:100500000895CF93DF93811104C081E090E00E94B1
:100510002A0127E0829FF0011124E95EFC4F22812D
:100520003381232B41F420813181232B21F484E07A
:1005300090E00E942A01E0914E03F0914F039FB793
:10054000F8942481281327C08FB7F8943097E9F2E4
:1005500023E0E731F207C9F2C281D381A081B181E2
:10056000209759F4109789F2B0934F03A0934E034C
:1005700013961C921E92129708C0B983A883A0817B
:10058000B1811396DC93CE9312971182108213825D
:1005900012828FBF05C00190F081E02D309789F65F
:1005A0009FBFDF91CF910895CF93CFB7F894E0919B
:1005B0005E0397E09E9FF0011124E95EFC4F2681C7
:1005C000222321F086E090E00E942A01E0915E0360
:1005D0009E9FF0011124E95EFC4F868380915E03AB
:1005E0000E9481020E942B01CFBFCF9108958111FB
:1005F0000C94D4020895CF93DF93EC01209781F0FF
:10060000CF3FD10539F030F08FEF0E94D402CF5F99
:10061000D109F4CF8C2F0E94F702C0E0D0E0EECFDA
:10062000DF91CF9108951F93CF93DF938B30910586
:1006300020F086E090E00E942A01880F991FEC01CB
:10064000CB59DD4F11E09FB7F894888118839FBF85
:10065000882329F0789481E00E94D402F4CFDF91BE
:10066000CF911F9108958B30910520F086E090E0A6
:100670000E942A01880F991FFC01EB59FD4F8FB78B
:10068000F894908110828FBF089580E0E82FF0E009
:10069000EE0FFF1FEB59FD4F118210828F5F8A30E2
:1006A000A9F78093640208956F927F928F929F9230
:1006B000AF92BF92DF92EF92FF920F931F93CF936F
:1006C000DF93CDB7DEB72B970FB6F894DEBF0FBE22
:1006D000CDBF0E94ED047C0190937A028093790251
:1006E000E7E1F3E020E030E090E011821082138235
:1006F0001282B901695E7C4FDB0114969C939923A9
:1007000041F0A901455051094E0D5F1DDA018C9150
:1007100001C080E0DB0115968C93159716961C920C
:100720009F5F3796295F3F4F9730F9F627E133E017
:1007300030934F0320934E03109218031092170327
:1007400010921A0310921903FE0131965F01DF0126
:100750001D929A95E9F706E0DD24D394A3E2B3E075
:10076000FE01329610E091E080E02C91281728F0ED
:100770003081311102C0192F822F9F5F1796319659
:10078000973099F7812F0E941E02F501E10FF11DAC
:10079000D082015019F720E635E000E513E0C701EB
:1007A00060E070E0D12C4EED842E4DEA942E4EEB9D
:1007B000A42E4FEEB42E5AE2E52E51E0F52EEEE1D6
:1007C0006E2EE1E07E2E40E050E0FA01E60FF71FCA
:1007D000E05AFA4F80829182A282B3824C5F5F4FCF
:1007E0004115B1E05B0789F7F901E950FF4F10822D
:1007F000188619861A861B86F986E8863896E0825E
:1008000049853197408331971082DD2039F0FC0112
:100810003797408151815987488702C07986688619
:100820004885F901E450FF4F408349853197408363
:1008300031971082DD20B1F0FC0134974081D9015D
:10084000A052BF4F4C934181F901E152FF4F4083C9
:10085000FC013297408112964C934181F901EF518E
:10086000FF4F4083A90148525F4FF80141935193D4
:100870008F01D3947395339507966115F7E07F0741
:1008800009F0A1CF0E9445032B960FB6F894DEBF66
:100890000FBECDBFDF91CF911F910F91FF90EF90D1
:1008A000DF90BF90AF909F908F907F906F90089552
:1008B0008091480308952FB7F89480914803909150
:1008C00049032FBF089590914803891B0C94F702A8
:1008D000811102C080915E03863078F4E0915E035E
:1008E00087E0E89FF0011124E95EFC4F6583413009
:1008F000510539F40E942B01089584E090E00E9494
:100900002A0108951F920F920FB60F9211240BB671
:100910000F922F933F934F935F936F937F938F9398
:100920009F93AF93BF93CF93DF93EF93FF9386E0B3
:1009300086BD80914C0390914D03019649F08091C2
:100940004C0390914D03019690934D0380934C037B
:1009500080914A0390914B0381E090E0909349038A
:100960008093480310924B0310924A03CDE1D3E0E9
:100970008881882349F081508883811105C0FE0158
:10098000329780810E941E02279683E0CE34D807DA
:1009900079F78091650C81110E942B01FF91EF91F5
:1009A000DF91CF91BF91AF919F918F917F916F9187
:1009B0005F914F913F912F910F900BBE0F900FBE03
:1009C0000F901F90189583E085BDEEE6F0E08081E2
:1009D0008160808386E086BD089580E092E008957E
:1009E000CF93DF93EC010E941303C230D10579F15C
:1009F000B0F4C130D10509F04EC01092C50083E3B8
:100A00008093C4001092C0008EE08093C20088E9F9
:100A10008093C100109205031092060340C0C330BA
:100A2000D10539F1C430D105B1F51092350187E611
:100A300080933401109230018EE08093320188E976
:100A400080933101109290021092910228C010926E
:100A5000CD0087E68093CC001092C8008EE0809392
:100A6000CA0088E98093C9001092DE021092DF026A
:100A700016C01092D50087E68093D4001092D00063
:100A80008EE08093D20088E98093D1001092B70263
:100A90001092B80204C086E090E00E942A01CE01C4
:100AA000DF91CF9108951F920F920FB60F921124EC
:100AB0000BB60F922F933F934F935F936F937F9358
:100AC0008F939F93AF93BF93EF93FF938091F10226
:100AD000882369F081508093F102811108C08091D0
:100AE000F202882321F00E941E021092F2028091ED
:100AF00006038F5F803108F080E090910503891331
:100B000006C08091C1008F778093C1000AC0E09138
:100B10000603F0E09091C600E95FFC4F908380935C
:100B20000603FF91EF91BF91AF919F918F917F91BC
:100B30006F915F914F913F912F910F900BBE0F904E
:100B40000FBE0F901F9018951F920F920FB60F9225
:100B500011240BB60F922F933F934F935F936F9394
:100B60007F938F939F93AF93BF93EF93FF93909156
:100B7000F4028091F30298130EC08091F002882352
:100B800021F00E941E021092F0028091C1008F7D20
:100B90008093C10015C0E091F302F0E0EB50FD4FEF
:100BA00080818093C6008091F3028F5F8093F3026F
:100BB000803118F48091F30201C080E08093F30249
:100BC000FF91EF91BF91AF919F918F917F916F9125
:100BD0005F914F913F912F910F900BBE0F900FBEE1
:100BE0000F901F9018951F920F920FB60F9211241D
:100BF0000BB60F922F933F934F935F936F937F9317
:100C00008F939F93AF93BF93EF93FF938091CA020B
:100C1000882369F081508093CA02811108C08091B5
:100C2000CB02882321F00E941E021092CB028091F9
:100C3000DF028F5F803108F080E09091DE0289133F
:100C400006C08091C9008F778093C9000AC0E091E7
:100C5000DF02F0E09091CE00E052FD4F9083809350
:100C6000DF02FF91EF91BF91AF919F918F917F91A3
:100C70006F915F914F913F912F910F900BBE0F900D
:100C80000FBE0F901F9018951F920F920FB60F92E4
:100C900011240BB60F922F933F934F935F936F9353
:100CA0007F938F939F93AF93BF93EF93FF93909115
:100CB000CD028091CC0298130EC08091C902882386
:100CC00021F00E941E021092C9028091C9008F7DFE
:100CD0008093C90015C0E091CC02F0E0E253FD4FD3
:100CE00080818093CE008091CC028F5F8093CC0274
:100CF000803118F48091CC0201C080E08093CC0256
:100D0000FF91EF91BF91AF919F918F917F916F91E3
:100D10005F914F913F912F910F900BBE0F900FBE9F
:100D20000F901F9018951F920F920FB60F921124DB
:100D30000BB60F922F933F934F935F936F937F93D5
:100D40008F939F93AF93BF93EF93FF938091A302F1
:100D5000882369F081508093A302811108C080919B
:100D6000A402882321F00E941E021092A402809106
:100D7000B8028F5F803108F080E09091B70289134C
:100D800006C08091D1008F778093D1000AC0E09196
:100D9000B802F0E09091D600E754FD4F9083809325
:100DA000B802FF91EF91BF91AF919F918F917F9189
:100DB0006F915F914F913F912F910F900BBE0F90CC
:100DC0000FBE0F901F9018951F920F920FB60F92A3
:100DD00011240BB60F922F933F934F935F936F9312
:100DE0007F938F939F93AF93BF93EF93FF939091D4
:100DF000A6028091A50298130EC08091A2028823BA
:100E000021F00E941E021092A2028091D1008F7DDB
:100E10008093D10015C0E091A502F0E0E955FD4FA7
:100E200080818093D6008091A5028F5F8093A50278
:100E3000803118F48091A50201C080E08093A50262
:100E4000FF91EF91BF91AF919F918F917F916F91A2
:100E50005F914F913F912F910F900BBE0F900FBE5E
:100E60000F901F9018951F920F920FB60F9211249A
:100E70000BB60F922F933F934F935F936F937F9394
:100E80008F939F93AF93BF93EF93FF9380917C02D7
:100E9000882369F0815080937C02811108C0809181
:100EA0007D02882321F00E941E0210927D02809113
:100EB00091028F5F803108F080E090919002891359
:100EC00006C0809131018F77809331010AC0E09193
:100ED0009102F0E090913601EE56FD4F90838093A1
:100EE0009102FF91EF91BF91AF919F918F917F916F
:100EF0006F915F914F913F912F910F900BBE0F908B
:100F00000FBE0F901F9018951F920F920FB60F9261
:100F100011240BB60F922F933F934F935F936F93D0
:100F20007F938F939F93AF93BF93EF93FF93909192
:100F30007F0280917E0298130EC080917B028823ED
:100F400021F00E941E0210927B02809131018F7D60
:100F50008093310115C0E0917E02F0E0E058FD4F32
:100F600080818093360180917E028F5F80937E0224
:100F7000803118F480917E0201C080E080937E026F
:100F8000FF91EF91BF91AF919F918F917F916F9161
:100F90005F914F913F912F910F900BBE0F900FBE1D
:100FA0000F901F901895EF92FF920F931F93CF937E
:100FB000DF938B01F42ED22F8230910509F453C0B8
:100FC00018F4019749F022C18330910509F492C0C9
:100FD000049709F4D6C01AC16115710529F48091EE
:100FE00005038093060316C18091C1008068809339
:100FF000C100C0E0CF1508F00FC1909106038091A9
:1010000005039817D9F098012F5F3F4FE091050332
:10101000F0E0E95FFC4F8081F80180838091050357
:101020008F5F80930503803118F48091050301C020
:1010300080E080930503CF5F8901DCCFDD2309F4D5
:10104000EBC0EFB6F8940E941B028093F2028F2D42
:101050008C1B8093F1028D2F0E94F7021092F202F6
:10106000EFBED0E0C7CF6115710529F48091DE0293
:101070008093DF02CFC08091C90080688093C9004F
:10108000C0E0CF1508F0C8C09091DF028091DE0269
:101090009817D9F098012F5F3F4FE091DE02F0E002
:1010A000E052FD4F8081F80180838091DE028F5FE6
:1010B0008093DE02803118F48091DE0201C080E06E
:1010C0008093DE02CF5F8901DCCFDD2309F4A4C069
:1010D000EFB6F8940E941B028093CB028F2D8C1BDD
:1010E0008093CA028D2F0E94F7021092CB02EFBEAE
:1010F000D0E0C7CF6115710529F48091B7028093C4
:10110000B80288C08091D10080688093D100C0E08F
:10111000CF1508F081C09091B8028091B70298175E
:10112000D9F098012F5F3F4FE091B702F0E0E7540C
:10113000FD4F8081F80180838091B7028F5F80939B
:10114000B702803118F48091B70201C080E080932B
:10115000B702CF5F8901DCCFDD2309F45DC0EFB6B4
:10116000F8940E941B028093A4028F2D8C1B809305
:10117000A3028D2F0E94F7021092A402EFBED0E0CE
:10118000C7CF6115710529F4809190028093910277
:1011900041C080913101806880933101C0E0CF155A
:1011A000D8F590919102809190029817D9F098010A
:1011B0002F5F3F4FE0919002F0E0EE56FD4F8081AF
:1011C000F8018083809190028F5F8093900280313C
:1011D00018F48091900201C080E080939002CF5F6C
:1011E0008901DDCFDD23C1F0EFB6F8940E941B0228
:1011F00080937D028F2D8C1B80937C028D2F0E940B
:10120000F70210927D02EFBED0E0C9CF86E090E0F9
:101210000E942A0180E001C08C2FDF91CF911F91A5
:101220000F91FF90EF9008950F931F93CF93DF934B
:1012300082309105B1F038F4019709F0F9C08B01C3
:10124000C42FC60F2BC08330910539F0049709F0E5
:10125000EFC08B01C42FC60FCCC08B01C42FC60FAB
:101260008FC08B01C42FC60F52C0E091F402D80189
:101270008D918D01F0E0EB50FD4F80838091F40261
:101280008F5F8093F402803138F58091F40280936F
:10129000F4028091C10080628093C100C01709F4FC
:1012A000CFC08091F4028F5F803108F080E0909190
:1012B000F3028913DACFDFB7F8948091C10080621E
:1012C0008093C1000E941B028093F0020E94810261
:1012D0000E942B01DFBFE5CF80E0D9CFE091CD02A6
:1012E000D8018D918D01F0E0E253FD4F8083809114
:1012F000CD028F5F8093CD02803138F58091CD0291
:101300008093CD028091C90080628093C900C0178C
:1013100009F496C08091CD028F5F803108F080E0A3
:101320009091CC028913DACFDFB7F8948091C9008D
:1013300080628093C9000E941B028093C9020E94B0
:1013400081020E942B01DFBFE5CF80E0D9CFE09181
:10135000A602D8018D918D01F0E0E955FD4F808303
:101360008091A6028F5F8093A602803138F580912C
:10137000A6028093A6028091D10080628093D10062
:10138000C01709F45DC08091A6028F5F803108F01C
:1013900080E09091A5028913DACFDFB7F8948091AD
:1013A000D10080628093D1000E941B028093A20230
:1013B0000E9481020E942B01DFBFE5CF80E0D9CFE0
:1013C000E0917F02D8018D918D01F0E0E058FD4F52
:1013D000808380917F028F5F80937F02803130F520
:1013E00080917F0280937F0280913101806280939F
:1013F0003101C01729F180917F028F5F803108F0A1
:1014000080E090917E028913DBCFDFB7F894809162
:1014100031018062809331010E941B0280937B0224
:101420000E9481020E942B01DFBFE5CF80E0DACF6E
:1014300086E090E0DF91CF911F910F910C942A01EB
:10144000DF91CF911F910F9108958AE090E00E9463
:10145000FB02FBCFCF93DF93CDB7DEB7E2970FB69A
:10146000F894DEBF0FBECDBF01967C01C7010E947C
:10147000F0048C0101151105C9F320E040E060E0A3
:1014800070E0C8010E94D30741E06EE272E0C8013B
:101490000E94140924E641E0BE016F5F7F4FC8013E
:1014A0000E94D30746E068E472E0C8010E94140974
:1014B00024E646E0BE016F5F7F4FC8010E94D3075C
:1014C00044E16FE472E0C8010E94140924E640E19F
:1014D000BE016F5F7F4FC8010E94D307CBCF0E9430
:1014E00054030E94E3040E94CF0186E090E00E9432
:1014F0002A0180E090E008952F923F924F925F92F0
:101500006F927F928F929F92AF92BF92CF92DF9213
:10151000EF92FF920F931F93CF93DF93CDB7DEB778
:1015200063970FB6F894DEBF0FBECDBF6C014B01C1
:101530002A01FC0117821682838181FF43C3AE0119
:101540004F5F5F4F3A01F6019381F40193FD85915E
:1015500093FF81914F01882309F430C3853239F418
:1015600093FD859193FF81914F01853239F4B60146
:1015700090E00E940F0F52012501E5CF10E0F12C01
:1015800020E02032A0F48B3269F030F4803259F040
:10159000833269F420612CC08D3239F0803339F404
:1015A000216026C02260246023C0286021C027FD5E
:1015B00027C030ED380F3A3078F426FF06C0FAE045
:1015C0001F9F300D1124132F13C04AE0F49E300DDD
:1015D0001124F32E20620CC08E3221F426FDEEC2BF
:1015E000206406C08C3611F4206802C0883641F4AD
:1015F000F40193FD859193FF81914F018111C1CF3A
:101600009BEB980F933018F42061805E06C09BE935
:10161000980F933008F071C12F7E26FF16E02F73CC
:10162000322E853619F42064322E08C0863621F415
:10163000F22FF0683F2E02C01111115037FE07C083
:101640001C3350F4EE24E394E10E27E00BC0183075
:1016500038F027E017E005C027E04CE3E42E02C095
:10166000212FE12C520144E0A40EB11CF201608153
:101670007181828193810E2DA3010E94210E2C0184
:10168000098100FF02C003FF07C031FC08C032FE21
:1016900009C030E2232E07C02DE2222E04C09BE2B7
:1016A000292E01C0212C802F8C7019F0211068C2C6
:1016B000A8C237FE0FC0E40C04FF04C08A81813346
:1016C00009F4EA941E1474F5F8E0FE1578F588E044
:1016D000E82E2CC036FC2AC0812F90E08415950599
:1016E0009CF02CEF42162FEF520674F0432D406809
:1016F000342E0AC0E2E0F0E0EC0FFD1FE10FF11D17
:101700008081803319F411501111F4CF37FE0EC0CF
:10171000EE24E394E10E812F90E0481659062CF454
:10172000141904C0EE24E39401C010E037FE06C093
:101730001414150434F4C201019605C085E090E04C
:1017400002C081E090E021100196112331F0212F99
:1017500030E02F5F3F4F820F931F2F2D30E0821715
:10176000930714F4F81A01C0F12C832D897049F401
:10177000FF2039F0B60180E290E00E940F0FFA944A
:10178000F7CF222029F0B601822D90E00E940F0FA2
:1017900033FC09C0FF2039F0B60180E390E00E94DD
:1017A0000F0FFA94F7CF37FE5AC0942D852D57FEB0
:1017B00002C090E080E0292E382E20E030E0A20127
:1017C0004E1951095D874C87A201421953095F8761
:1017D0004E87612F70E044275527461B570B598BC6
:1017E000488B5FEF2516350649F4B6018EE290E08E
:1017F0002A8B3B8B0E940F0F3B892A89421453048A
:101800006CF04C855D854215530544F4EE85FF85EB
:10181000E20FF31FE60DF71D818101C080E351E067
:10182000251A31082F5F3F4F4889598924163506FC
:101830004CF0B60190E02A8B3B8B0E940F0F2A8957
:101840003B89CFCF2414350439F49A81963318F4A8
:10185000953311F404FF81E3B60190E04BC08A8117
:10186000813309F00F7EB60190E00E940F0F111135
:1018700005C034FC18C085E690E017C0B6018EE2C2
:1018800090E00E940F0F82E0EE24E394E80EF30153
:10189000E80FF11D8081B60190E00E940F0F1150FA
:1018A0008E2D91F7E6CF85E490E0B6010E940F0FF0
:1018B00057FC05C04114510439F404FF05C051948C
:1018C000419451088DE201C08BE2B60190E00E9484
:1018D0000F0F80E39AE0491651042CF08F5F5AE015
:1018E000451A5108F7CFB60190E00E940F0FB601DC
:1018F000C201C0960E940F0F57C1833631F0833763
:1019000079F0833509F058C021C05201E2E0AE0EF3
:10191000B11CF2018081898301E010E0230114C031
:101920005201F2E0AF0EB11CF2014080518026FF5F
:1019300003C0612F70E002C06FEF7FEFC2012A8BFE
:101940000E94040F8C012A892F7715C05201F2E002
:10195000AF0EB11CF2014080518026FF03C0612F01
:1019600070E002C06FEF7FEFC2012A8B0E94F90E78
:101970008C012A892068322E23FD1AC08F2D90E019
:1019800008171907A8F4B60180E290E00E940F0F33
:10199000FA94F4CFF20137FC859137FE81912F0143
:1019A000B60190E00E940F0FF110FA940150110956
:1019B0000115110579F7F8C0843611F0893659F50B
:1019C000520127FF09C0F4E0AF0EB11CF2016081A3
:1019D0007181828193810AC0F2E0AF0EB11CF201E5
:1019E00060817181882777FD8095982F2F76322E20
:1019F00097FF09C090958095709561957F4F8F4FA7
:101A00009F4F2068322E2AE030E0A3010E94470F4A
:101A1000E82EE6183FC0022F853721F40F7E2AE01A
:101A200030E01DC0097F8F3691F018F4883559F0E9
:101A3000C5C0803719F0883711F0C0C0006104FFBD
:101A400009C0046007C024FF08C0066006C028E083
:101A500030E005C020E130E002C020E132E0520178
:101A600007FF09C0F4E0AF0EB11CF2016081718183
:101A70008281938108C0F2E0AF0EB11CF201608157
:101A8000718180E090E0A3010E94470FE82EE618E4
:101A90000F77302E36FE0BC0332D3E7FE11650F40B
:101AA00034FE0AC032FC08C0332D3E7E05C00E2D28
:101AB000332D03C00E2D01C0012F34FF0CC0FE01D9
:101AC000EE0DF11D8081803311F4397E08C032FFA4
:101AD00005C00E5F04C0832F867809F00F5F33FDC9
:101AE00013C030FF06C01E2D0F1518F41F0D101B5C
:101AF0000F2D0F1568F4B60180E290E03B8B0E9439
:101B00000F0F0F5F3B89F5CF0F1510F4F01A01C0CE
:101B1000F12C34FF12C0B60180E390E03B8B0E94B1
:101B20000F0F3B8932FF17C031FD03C088E790E0FB
:101B300002C088E590E0B6010CC0832F867859F08A
:101B400031FF02C08BE201C080E237FD8DE2B601B9
:101B500090E00E940F0FE11638F4B60180E390E0A8
:101B60000E940F0F1150F7CFEA94F301EE0DF11D13
:101B70008081B60190E00E940F0FE110F5CF14C0F4
:101B8000F4E0FF1558F584E0F81A33FE1EC021106A
:101B900026C003FF2AC004EF10E0F32DF0713F2EA2
:101BA000F8018491811124C0FF2009F4E5CCB6012D
:101BB00080E290E00E940F0FFA94F6CFF601868142
:101BC000978126C08FEF9FEF23C0B60180E290E09F
:101BD0000E940F0FFA94F110F8CFD9CFF12CB60173
:101BE000822D90E00E940F0FD4CF08EF10E0D5CFE8
:101BF00031108052B60190E00E940F0F0F5F1F4F0F
:101C0000CFCF23E02F1510F483E0BECFF12CC1CF4E
:101C100063960FB6F894DEBF0FBECDBFDF91CF91B4
:101C20001F910F91FF90EF90DF90CF90BF90AF90FA
:101C30009F908F907F906F905F904F903F902F90EC
:101C40000895283008F027E03327DA01990F311D75
:101C500087FD916000966105710539F432602E5F51
:101C60003D9330E32A95E1F708959F3F30F08038A7
:101C70007105610509F03C5F3C5F3D93913008F0D0
:101C80008068911DDF93CF931F930F93FF92EF9284
:101C9000192F987F9695E92F96959695E90FFF272E
:101CA000EA5AFE4F99273327EE24FF24A701E701C4
:101CB00005900894079428F4360FE71EF81E491F74
:101CC000511D660F771F881F991F0694A1F7059075
:101CD000079428F4E70EF81E491F561FC11D770F01
:101CE000881F991F661F0694A1F70590079428F492
:101CF000F80E491F561FC71FD11D880F991F661F59
:101D0000771F0694A1F70590079420F4490F561FFA
:101D1000C71FD81F990F661F771F881F0694A9F742
:101D200084911095177041F0D695C79557954795B2
:101D3000F794E7941A95C1F7ECEFF0E068941590EA
:101D4000159135916591959105907FE27395E11814
:101D5000F10A430B560BC90BD009C0F7E10CF11E79
:101D6000431F561FC91FD01D7EF4703311F48A958E
:101D7000E6CFE894015030F0080F0AF4002702176C
:101D800008F4202F2395022F7A3328F079E37D93EE
:101D90002A95E9F710C07D932A9589F606949795C0
:101DA0006795379517951794E118F10A430B560B71
:101DB000C90BD00998F023957E9173957A3308F07A
:101DC00070E37C932013B8F77E9170617D9330F0BF
:101DD000839571E37D9370E32A95E1F71124EF90E9
:101DE000FF900F911F91CF91DF91992787FD9095DB
:101DF0000895FC010590615070400110D8F780955E
:101E000090958E0F9F1F0895FC01615070400190C6
:101E10000110D8F7809590958E0F9F1F08950F930E
:101E20001F93CF93DF93FB01238121FD03C08FEF2D
:101E30009FEF28C022FF16C046815781248135813B
:101E40004217530744F4A081B1819D012F5F3F4F9A
:101E5000318320838C93268137812F5F3F4F3783D7
:101E6000268310C0EB01092F182F0084F185E02D87
:101E70001995892BE1F68E819F8101969F838E8330
:101E8000812F902FDF91CF911F910F910895FA012B
:101E9000AA27283051F1203181F1E8946F936E7FA9
:101EA0006E5F7F4F8F4F9F4FAF4FB1E03ED0B4E09A
:101EB0003CD0670F781F891F9A1FA11D680F791FDB
:101EC0008A1F911DA11D6A0F711D811D911DA11DEC
:101ED00020D009F468943F912AE0269F11243019FC
:101EE000305D3193DEF6CF010895462F4770405D97
:101EF0004193B3E00FD0C9F7F6CF462F4F70405D46
:101F00004A3318F0495D31FD4052419302D0A9F7A0
:101F1000EACFB4E0A6959795879577956795BA959A
:101F2000C9F700976105710508959B01AC010A2E60
:101F300006945795479537952795BA95C9F7620F37
:0E1F4000731F841F951FA01D0895F894FFCFF6
:101F4E002A0A0A00002A022A0A0A010030022A0A74
:101F5E000A020036022A0A0A03003C02250A14016C
:101F6E000042022A0A0A03003C0255415254310033
:101F7E00554152543200554152543300554152543A
:101F8E00340068696768700061626364656600307A
:101F9E00313233343536373839414243444546477A
:041FAE0048494A0054
:00000001FF
