:100000000C94FB000C941C010C941C010C941C011E
:100010000C941C010C941C010C941C010C941C01EC
:100020000C941C010C941C010C941C010C941C01DC
:100030000C941C010C941C010C941C010C941C01CC
:100040000C941C010C941C010C941C010C941C01BC
:100050000C941C010C941C010C941C010C947A044B
:100060000C941C010C9448050C9499050C941C01EB
:100070000C941C010C941C010C941C010C941C018C
:100080000C941C010C941C010C941C010C941C017C
:100090000C94E8050C9439060C941C010C941C017A
:1000A0000C941C010C941C010C941C010C941C015C
:1000B0000C941C010C941C010C941C010C941C014C
:1000C0000C941C010C941C010C941C010C948806CB
:1000D0000C94D9060C941C010C9428070C947907F5
:1000E0000C941C010C941E010C941F0A0C942A0100
:1000F0000C941A0A6E616E00696E660000407A10F8
:10010000F35A00A0724E18090010A5D4E80000E8C8
:100110007648170000E40B54020000CA9A3B000026
:1001200000E1F505000080969800000040420F00B5
:100130000000A08601000000102700000000E80376
:10014000000000006400000000000A000000000041
:100150000100000000002C76D888DC674F0823DF00
:10016000C1DFAE59E1B1B796E5E3E453C63AE651D3
:10017000997696E8E6C28426EB898C9B62ED407CFA
:100180006FFCEFBC9C9F40F2BAA56FA5F490055A96
:100190002AF75C936B6CF9676DC11BFCE0E40D47BB
:1001A000FEF520E6B500D0ED902E030094357705DE
:1001B0000080841E080000204E0A000000C80C3396
:1001C0003333330F986E12831141EF8D2114893B25
:1001D000E65516CFFEE6DB18D1844B381BF77C1DA5
:1001E000901DA4BBE424203284725E228100C9F1F8
:1001F00024ECA1E53D2711241FBECFEFD1E2DEBFE5
:10020000CDBF00E00CBF12E0A0E0B2E0E8E3FFE108
:1002100000E00BBF02C007900D92A436B107D9F7DA
:100220001CE0A4E6B2E001C01D92A436B107E1F7DC
:100230000E94640A0C949A0F0C94000083B7817F8B
:1002400083BF83B7816083BF7894889583B78E7F9F
:1002500083BFF4CFFFCF0F920FB6F8940F921F9287
:100260002F923F924F925F926F927F928F929F92C6
:10027000AF92BF92CF92DF92EF92FF920F931F93B4
:100280002F933F934F935F936F937F938F939F939E
:10029000AF93BF93CF93DF93EF93FF930DB600928D
:1002A0005E0C0EB600925F0CE0915C03F0E0EE0F86
:1002B000FF1FE25BFC4F80915E0C90915F0C91837D
:1002C0008083A0914C03B0914D03109739F41FC067
:1002D0000190F081E02D309711F456C0FD0180911E
:1002E0005C0394819813F4CF54C095818D81981349
:1002F00004C08C8180935C030EC014968C91809313
:100300005C0309C014968C9180935C0304C080E068
:1003100090E00E942A01E0915C03F0E0EE0FFF1FE5
:10032000E25BFC4F8081918190935F0C80935E0C27
:1003300000905E0C0DBE00905F0C0EBEFF91EF9121
:10034000DF91CF91BF91AF919F918F917F916F91ED
:100350005F914F913F912F911F910F91FF90EF90DF
:10036000DF90CF90BF90AF909F908F907F906F90D5
:100370005F904F903F902F901F900F900FBE0F9067
:100380007894789408950BC014968C9180935C03B4
:10039000C2CFC081D181209709F0A7CFB3CFE09120
:1003A0004C03F0914D03309709F441C08481809350
:1003B0005C0381E08093630CE0915C03F0E0EE0F5E
:1003C000FF1FE25BFC4F8081918190935F0C8093D3
:1003D0005E0C00905E0C0DBE00905F0C0EBEFF9197
:1003E000EF91DF91CF91BF91AF919F918F917F91CD
:1003F0006F915F914F913F912F911F910F91FF90BE
:10040000EF90DF90CF90BF90AF909F908F907F90B4
:100410006F905F904F903F902F901F900F900FBE66
:100420000F907894089586E090E00E942A0180E081
:1004300090E00E942A0180915C030895CF93DF939E
:10044000811104C081E090E00E942A01282F30E051
:1004500097E0899FF0011124EB5EFC4F8081918130
:10046000892B21F482819381892B21F084E090E013
:100470000E942A01A0914C03B0914D034FB7F8940C
:100480001682558115968C911597851758F487E03B
:10049000829FF001839FF00D1124EB5EFC4F1097BB
:1004A00041F4D0CF8D919C911197009781F3DC019D
:1004B000E9CF309739F28FB7F8941296CD91DC914D
:1004C0001397209739F4F0934D03E0934C03138274
:1004D000128204C0F983E883D383C28397E0929F9A
:1004E000E001939FD00D1124CB5EDC4FB983A8832C
:1004F0001396FC93EE9312978FBF4FBFDF91CF916E
:100500000895CF93DF93811104C081E090E00E94B1
:100510002A0127E0829FF0011124EB5EFC4F22812B
:100520003381232B41F420813181232B21F484E07A
:1005300090E00E942A01E0914C03F0914D039FB797
:10054000F8942481281327C08FB7F8943097E9F2E4
:1005500023E0E531F207C9F2C281D381A081B181E4
:10056000209759F4109789F2B0934D03A0934C0350
:1005700013961C921E92129708C0B983A883A0817B
:10058000B1811396DC93CE9312971182108213825D
:1005900012828FBF05C00190F081E02D309789F65F
:1005A0009FBFDF91CF910895CF93CFB7F894E0919B
:1005B0005C0397E09E9FF0011124EB5EFC4F2681C7
:1005C000222321F086E090E00E942A01E0915C0362
:1005D0009E9FF0011124EB5EFC4F868380915C03AB
:1005E0000E9481020E942B01CFBFCF9108958111FB
:1005F0000C94D4020895CF93DF93EC01209781F0FF
:10060000CF3FD10539F030F08FEF0E94D402CF5F99
:10061000D109F4CF8C2F0E94F702C0E0D0E0EECFDA
:10062000DF91CF9108951F93CF93DF938B30910586
:1006300020F086E090E00E942A01880F991FEC01CB
:10064000CB59DD4F11E09FB7F894888118839FBF85
:10065000882329F0789481E00E94D402F4CFDF91BE
:10066000CF911F9108958B30910520F086E090E0A6
:100670000E942A01880F991FFC01EB59FD4F8FB78B
:10068000F894908110828FBF089580E0E82FF0E009
:10069000EE0FFF1FEB59FD4F118210828F5F8A30E2
:1006A000A9F78093640208958F929F92AF92BF92B0
:1006B000CF92DF92EF92FF920F931F93CF93DF932E
:1006C000CDB7DEB72B970FB6F894DEBF0FBECDBF08
:1006D000E5E1F3E020E030E080E011821082138257
:1006E0001282B9016B5E7C4FDB0114968C938823D8
:1006F00031F0A90145505E4FDA019C9101C090E0B4
:10070000DB0115969C93159716961C928F5F379672
:10071000295F3F4F873009F725E133E030934D03E0
:1007200020934C0310921603109215031092180395
:1007300010921703FE0131967F01DF011D928A9509
:10074000E9F706E0DD24D394A1E2B3E0FE0132969E
:1007500010E080E091E02C91281728F030813111D1
:1007600002C0192F822F9F5F17963196973099F705
:10077000812F0E941E02F701E10FF11DD08201506E
:1007800019F78EE595E00EE413E020E032E0E0E0BA
:10079000F0E060E04EED842E4DEA942E4EEBA42E58
:1007A0004FEEB42E5AE2E52E51E0F52E7EE1C72E33
:1007B00071E0D72E40E050E0DA01AE0FBF1FA25A21
:1007C000BA4F8D929D92AD92BC9213974C5F5F4F42
:1007D0004115B1E05B0781F7DC01A950BF4F1C92C6
:1007E000188619861A861B86F986E8861896EC9272
:1007F000498511974C9311971C92662339F0D901C2
:1008000017974D915C915987488702C0D986C88651
:100810004885DC01A450BF4F4C93498511974C93F8
:1008200011971C926623B1F0D90114975C9111962F
:100830004C91DC01A052BF4F5C9311974C93D901AE
:1008400012975C9111964C91DC01AE51BF4F5C93B5
:1008500011974C93AC0148525F4FD8014D935D9373
:100860008D016F5FF3959395295F3F4FE115B7E0D9
:10087000FB0709F09FCF0E9445032B960FB6F89413
:10088000DEBF0FBECDBFDF91CF911F910F91FF90C3
:10089000EF90DF90CF90BF90AF909F908F90089592
:1008A0008091460308952FB7F89480914603909164
:1008B00047032FBF089590914603891B0C94F702BC
:1008C000811102C080915C03863078F4E0915C0372
:1008D00087E0E89FF0011124EB5EFC4F6583413017
:1008E000510539F40E942B01089584E090E00E94A4
:1008F0002A0108951F920F920FB60F9211240BB682
:100900000F922F933F934F935F936F937F938F93A8
:100910009F93AF93BF93CF93DF93EF93FF9386E0C3
:1009200086BD80914A0390914B03019649F08091D6
:100930004A0390914B03019690934B0380934A0393
:10094000809148039091490381E090E090934703A0
:10095000809346031092490310924803CBE1D3E001
:100960008881882349F081508883811105C0FE0168
:10097000329780810E941E02279683E0CC34D807EC
:1009800079F78091630C81110E942B01FF91EF9107
:10099000DF91CF91BF91AF919F918F917F916F9197
:1009A0005F914F913F912F910F900BBE0F900FBE13
:1009B0000F901F90189583E085BDEEE6F0E08081F2
:1009C0008160808386E086BD0895CF93DF93EC013C
:1009D0000E941303C230D10579F1B0F4C130D105C2
:1009E00009F04EC01092C50083E38093C4001092BA
:1009F000C0008EE08093C20088E98093C10010920D
:100A000003031092040340C0C330D10539F1C43050
:100A1000D105B1F51092350187E68093340110922B
:100A200030018EE08093320188E980933101109289
:100A30008E0210928F0228C01092CD0087E680931C
:100A4000CC001092C8008EE08093CA0088E98093A1
:100A5000C9001092DC021092DD0216C01092D5007F
:100A600087E68093D4001092D0008EE08093D2006D
:100A700088E98093D1001092B5021092B60204C0AA
:100A800086E090E00E942A01CE01DF91CF91089587
:100A90001F920F920FB60F9211240BB60F922F9345
:100AA0003F934F935F936F937F938F939F93AF93F6
:100AB000BF93EF93FF938091EF02882369F08150F9
:100AC0008093EF02811108C08091F002882321F009
:100AD0000E941E021092F002809104038F5F803109
:100AE00008F080E090910303891306C08091C10053
:100AF0008F778093C1000AC0E0910403F0E09091E9
:100B0000C600EB5FFC4F908380930403FF91EF914D
:100B1000BF91AF919F918F917F916F915F914F9115
:100B20003F912F910F900BBE0F900FBE0F901F9013
:100B300018951F920F920FB60F9211240BB60F92B9
:100B40002F933F934F935F936F937F938F939F93D5
:100B5000AF93BF93EF93FF939091F2028091F102D4
:100B600098130EC08091EE02882321F00E941E028D
:100B70001092EE028091C1008F7D8093C10015C05C
:100B8000E091F102F0E0ED50FD4F80818093C600CE
:100B90008091F1028F5F8093F102803118F480918F
:100BA000F10201C080E08093F102FF91EF91BF91CB
:100BB000AF919F918F917F916F915F914F913F91F5
:100BC0002F910F900BBE0F900FBE0F901F90189596
:100BD0001F920F920FB60F9211240BB60F922F9304
:100BE0003F934F935F936F937F938F939F93AF93B5
:100BF000BF93EF93FF938091C802882369F08150DF
:100C00008093C802811108C08091C902882321F015
:100C10000E941E021092C9028091DD028F5F803116
:100C200008F080E09091DC02891306C08091C90031
:100C30008F778093C9000AC0E091DD02F0E09091C7
:100C4000CE00E252FD4F90838093DD02FF91EF9141
:100C5000BF91AF919F918F917F916F915F914F91D4
:100C60003F912F910F900BBE0F900FBE0F901F90D2
:100C700018951F920F920FB60F9211240BB60F9278
:100C80002F933F934F935F936F937F938F939F9394
:100C9000AF93BF93EF93FF939091CB028091CA02E1
:100CA00098130EC08091C702882321F00E941E0273
:100CB0001092C7028091C9008F7D8093C90015C032
:100CC000E091CA02F0E0E453FD4F80818093CE00B2
:100CD0008091CA028F5F8093CA02803118F480919C
:100CE000CA0201C080E08093CA02FF91EF91BF91D8
:100CF000AF919F918F917F916F915F914F913F91B4
:100D00002F910F900BBE0F900FBE0F901F90189554
:100D10001F920F920FB60F9211240BB60F922F93C2
:100D20003F934F935F936F937F938F939F93AF9373
:100D3000BF93EF93FF938091A102882369F08150C4
:100D40008093A102811108C08091A202882321F022
:100D50000E941E021092A2028091B6028F5F803123
:100D600008F080E09091B502891306C08091D1000F
:100D70008F778093D1000AC0E091B602F0E09091A5
:100D8000D600E954FD4F90838093B602FF91EF9116
:100D9000BF91AF919F918F917F916F915F914F9193
:100DA0003F912F910F900BBE0F900FBE0F901F9091
:100DB00018951F920F920FB60F9211240BB60F9237
:100DC0002F933F934F935F936F937F938F939F9353
:100DD000AF93BF93EF93FF939091A4028091A302EE
:100DE00098130EC08091A002882321F00E941E0259
:100DF0001092A0028091D1008F7D8093D10015C008
:100E0000E091A302F0E0EB55FD4F80818093D60086
:100E10008091A3028F5F8093A302803118F48091A8
:100E2000A30201C080E08093A302FF91EF91BF91E4
:100E3000AF919F918F917F916F915F914F913F9172
:100E40002F910F900BBE0F900FBE0F901F90189513
:100E50001F920F920FB60F9211240BB60F922F9381
:100E60003F934F935F936F937F938F939F93AF9332
:100E7000BF93EF93FF9380917A02882369F08150AA
:100E800080937A02811108C080917B02882321F02F
:100E90000E941E0210927B0280918F028F5F803130
:100EA00008F080E090918E02891306C08091310194
:100EB0008F77809331010AC0E0918F02F0E090912A
:100EC0003601E057FD4F908380938F02FF91EF91A1
:100ED000BF91AF919F918F917F916F915F914F9152
:100EE0003F912F910F900BBE0F900FBE0F901F9050
:100EF00018951F920F920FB60F9211240BB60F92F6
:100F00002F933F934F935F936F937F938F939F9311
:100F1000AF93BF93EF93FF9390917D0280917C02FA
:100F200098130EC080917902882321F00E941E023E
:100F300010927902809131018F7D8093310115C02B
:100F4000E0917C02F0E0E258FD4F80818093360111
:100F500080917C028F5F80937C02803118F48091B5
:100F60007C0201C080E080937C02FF91EF91BF91F1
:100F7000AF919F918F917F916F915F914F913F9131
:100F80002F910F900BBE0F900FBE0F901F901895D2
:100F9000EF92FF920F931F93CF93DF938B01F42E69
:100FA000D22F8230910509F453C018F4019749F00B
:100FB00022C18330910509F492C0049709F4D6C088
:100FC0001AC16115710529F480910303809304030C
:100FD00016C18091C10080688093C100C0E0CF1528
:100FE00008F00FC190910403809103039817D9F082
:100FF00098012F5F3F4FE0910303F0E0EB5FFC4F60
:101000008081F8018083809103038F5F80930303C5
:10101000803118F48091030301C080E080930303C2
:10102000CF5F8901DCCFDD2309F4EBC0EFB6F89484
:101030000E941B028093F0028F2D8C1B8093EF0285
:101040008D2F0E94F7021092F002EFBED0E0C7CFC2
:101050006115710529F48091DC028093DD02CFC017
:101060008091C90080688093C900C0E0CF1508F066
:10107000C8C09091DD028091DC029817D9F09801E8
:101080002F5F3F4FE091DC02F0E0E252FD4F8081A4
:10109000F80180838091DC028F5F8093DC028031D5
:1010A00018F48091DC0201C080E08093DC02CF5F05
:1010B0008901DCCFDD2309F4A4C0EFB6F8940E94C7
:1010C0001B028093C9028F2D8C1B8093C8028D2F29
:1010D0000E94F7021092C902EFBED0E0C7CF61159F
:1010E000710529F48091B5028093B60288C0809181
:1010F000D10080688093D100C0E0CF1508F081C096
:101100009091B6028091B5029817D9F098012F5F9F
:101110003F4FE091B502F0E0E954FD4F8081F801C6
:1011200080838091B5028F5F8093B502803118F47F
:101130008091B50201C080E08093B502CF5F890144
:10114000DCCFDD2309F45DC0EFB6F8940E941B02EA
:101150008093A2028F2D8C1B8093A1028D2F0E9461
:10116000F7021092A202EFBED0E0C7CF6115710561
:1011700029F480918E0280938F0241C080913101C9
:10118000806880933101C0E0CF15D8F590918F022F
:1011900080918E029817D9F098012F5F3F4FE09110
:1011A0008E02F0E0E057FD4F8081F801808380914E
:1011B0008E028F5F80938E02803118F480918E02B0
:1011C00001C080E080938E02CF5F8901DDCFDD23F7
:1011D000C1F0EFB6F8940E941B0280937B028F2D22
:1011E0008C1B80937A028D2F0E94F70210927B0253
:1011F000EFBED0E0C9CF86E090E00E942A0180E0F7
:1012000001C08C2FDF91CF911F910F91FF90EF9034
:1012100008950F931F93CF93DF9382309105B1F020
:1012200038F4019709F0F9C08B01C42FC60F2BC009
:101230008330910539F0049709F0EFC08B01C42F7A
:10124000C60FCCC08B01C42FC60F8FC08B01C42F1B
:10125000C60F52C0E091F202D8018D918D01F0E0ED
:10126000ED50FD4F80838091F2028F5F8093F202F8
:10127000803138F58091F2028093F2028091C100B2
:1012800080628093C100C01709F4CFC08091F20240
:101290008F5F803108F080E09091F1028913DACFFE
:1012A000DFB7F8948091C10080628093C1000E94F2
:1012B0001B028093EE020E9481020E942B01DFBF7D
:1012C000E5CF80E0D9CFE091CB02D8018D918D019F
:1012D000F0E0E453FD4F80838091CB028F5F8093D9
:1012E000CB02803138F58091CB028093CB02809184
:1012F000C90080628093C900C01709F496C080912C
:10130000CB028F5F803108F080E09091CA02891390
:10131000DACFDFB7F8948091C90080628093C9006A
:101320000E941B028093C7020E9481020E942B012F
:10133000DFBFE5CF80E0D9CFE091A402D8018D9145
:101340008D01F0E0EB55FD4F80838091A4028F5F0B
:101350008093A402803138F58091A4028093A40286
:101360008091D10080628093D100C01709F45DC0E4
:101370008091A4028F5F803108F080E09091A302F9
:101380008913DACFDFB7F8948091D100806280931F
:10139000D1000E941B028093A0020E9481020E9441
:1013A0002B01DFBFE5CF80E0D9CFE0917D02D801EE
:1013B0008D918D01F0E0E258FD4F808380917D0298
:1013C0008F5F80937D02803130F580917D02809324
:1013D0007D0280913101806280933101C01729F133
:1013E00080917D028F5F803108F080E090917C02D7
:1013F0008913DBCFDFB7F89480913101806280934D
:1014000031010E941B02809379020E9481020E9496
:101410002B01DFBFE5CF80E0DACF86E090E0DF91FF
:10142000CF911F910F910C942A01DF91CF911F91C1
:101430000F9108958AE090E00E94FB02FBCFCF93CA
:10144000DF93CDB7DEB7E2970FB6F894DEBF0FBEDD
:10145000CDBF01967C01C7010E94E5048C010115F6
:101460001105C9F320E040E060E070E0C8010E948F
:10147000C80741E06AE472E0C8010E94090924E655
:1014800041E0BE016F5F7F4FC8010E94C80746E080
:101490006AE272E0C8010E94090924E646E0BE0142
:1014A0006F5F7F4FC8010E94C80744E161E372E0AB
:1014B000C8010E94090924E640E1BE016F5F7F4F29
:1014C000C8010E94C807CBCF0E9454030E94DB04CE
:1014D0000E94CF0186E090E00E942A0180E090E027
:1014E00008952F923F924F925F926F927F928F92C8
:1014F0009F92AF92BF92CF92DF92EF92FF920F93A3
:101500001F93CF93DF93CDB7DEB763970FB6F894F1
:10151000DEBF0FBECDBF6C014B012A01FC0117825B
:101520001682838181FF43C3AE014F5F5F4F3A0153
:10153000F6019381F40193FD859193FF81914F0111
:10154000882309F430C3853239F493FD859193FFE4
:1015500081914F01853239F4B60190E00E94040F69
:1015600052012501E5CF10E0F12C20E02032A0F45B
:101570008B3269F030F4803259F0833269F42061A3
:101580002CC08D3239F0803339F4216026C02260BE
:10159000246023C0286021C027FD27C030ED380F0C
:1015A0003A3078F426FF06C0FAE01F9F300D112470
:1015B000132F13C04AE0F49E300D1124F32E206245
:1015C0000CC08E3221F426FDEEC2206406C08C369B
:1015D00011F4206802C0883641F4F40193FD85912E
:1015E00093FF81914F018111C1CF9BEB980F9330F5
:1015F00018F42061805E06C09BE9980F933008F0D4
:1016000071C12F7E26FF16E02F73322E853619F416
:101610002064322E08C0863621F4F22FF0683F2E67
:1016200002C01111115037FE07C01C3350F4EE24D4
:10163000E394E10E27E00BC0183038F027E017E004
:1016400005C027E04CE3E42E02C0212FE12C52011B
:1016500044E0A40EB11CF20160817181828193810A
:101660000E2DA3010E94160E2C01098100FF02C05D
:1016700003FF07C031FC08C032FE09C030E2232E50
:1016800007C02DE2222E04C09BE2292E01C0212C8E
:10169000802F8C7019F0211068C2A8C237FE0FC0CD
:1016A000E40C04FF04C08A81813309F4EA941E1417
:1016B00074F5F8E0FE1578F588E0E82E2CC036FCCD
:1016C0002AC0812F90E0841595059CF02CEF4216DE
:1016D0002FEF520674F0432D4068342E0AC0E2E02A
:1016E000F0E0EC0FFD1FE10FF11D8081803319F454
:1016F00011501111F4CF37FE0EC0EE24E394E10E29
:10170000812F90E0481659062CF4141904C0EE24D9
:10171000E39401C010E037FE06C01414150434F43D
:10172000C201019605C085E090E002C081E090E032
:1017300021100196112331F0212F30E02F5F3F4F10
:10174000820F931F2F2D30E08217930714F4F81A9D
:1017500001C0F12C832D897049F4FF2039F0B601C6
:1017600080E290E00E94040FFA94F7CF222029F043
:10177000B601822D90E00E94040F33FC09C0FF20C7
:1017800039F0B60180E390E00E94040FFA94F7CF9D
:1017900037FE5AC0942D852D57FE02C090E080E0A0
:1017A000292E382E20E030E0A2014E1951095D8724
:1017B0004C87A201421953095F874E87612F70E061
:1017C00044275527461B570B598B488B5FEF25162F
:1017D000350649F4B6018EE290E02A8B3B8B0E94DD
:1017E000040F3B892A89421453046CF04C855D85B3
:1017F0004215530544F4EE85FF85E20FF31FE60D15
:10180000F71D818101C080E351E0251A31082F5F67
:101810003F4F48895989241635064CF0B60190E0AF
:101820002A8B3B8B0E94040F2A893B89CFCF24143B
:10183000350439F49A81963318F4953311F404FF82
:1018400081E3B60190E04BC08A81813309F00F7EBD
:10185000B60190E00E94040F111105C034FC18C0BD
:1018600085E690E017C0B6018EE290E00E94040F7A
:1018700082E0EE24E394E80EF301E80FF11D80818D
:10188000B60190E00E94040F11508E2D91F7E6CF23
:1018900085E490E0B6010E94040F57FC05C0411496
:1018A000510439F404FF05C05194419451088DE26C
:1018B00001C08BE2B60190E00E94040F80E39AE041
:1018C000491651042CF08F5F5AE0451A5108F7CFA2
:1018D000B60190E00E94040FB601C201C0960E94BA
:1018E000040F57C1833631F0833779F0833509F01F
:1018F00058C021C05201E2E0AE0EB11CF20180815D
:10190000898301E010E0230114C05201F2E0AF0E20
:10191000B11CF2014080518026FF03C0612F70E0AE
:1019200002C06FEF7FEFC2012A8B0E94F90E8C017B
:101930002A892F7715C05201F2E0AF0EB11CF201D7
:101940004080518026FF03C0612F70E002C06FEF1E
:101950007FEFC2012A8B0E94EE0E8C012A8920683B
:10196000322E23FD1AC08F2D90E008171907A8F416
:10197000B60180E290E00E94040FFA94F4CFF201E5
:1019800037FC859137FE81912F01B60190E00E94CE
:10199000040FF110FA94015011090115110579F79E
:1019A000F8C0843611F0893659F5520127FF09C075
:1019B000F4E0AF0EB11CF2016081718182819381EC
:1019C0000AC0F2E0AF0EB11CF2016081718188277C
:1019D00077FD8095982F2F76322E97FF09C090952E
:1019E0008095709561957F4F8F4F9F4F2068322E65
:1019F0002AE030E0A3010E943C0FE82EE6183FC029
:101A0000022F853721F40F7E2AE030E01DC0097FC8
:101A10008F3691F018F4883559F0C5C0803719F029
:101A2000883711F0C0C0006104FF09C0046007C01E
:101A300024FF08C0066006C028E030E005C020E1B1
:101A400030E002C020E132E0520107FF09C0F4E0BB
:101A5000AF0EB11CF201608171818281938108C057
:101A6000F2E0AF0EB11CF2016081718180E090E084
:101A7000A3010E943C0FE82EE6180F77302E36FEA9
:101A80000BC0332D3E7FE11650F434FE0AC032FC09
:101A900008C0332D3E7E05C00E2D332D03C00E2D04
:101AA00001C0012F34FF0CC0FE01EE0DF11D80813D
:101AB000803311F4397E08C032FF05C00E5F04C0C8
:101AC000832F867809F00F5F33FD13C030FF06C007
:101AD0001E2D0F1518F41F0D101B0F2D0F1568F478
:101AE000B60180E290E03B8B0E94040F0F5F3B89C0
:101AF000F5CF0F1510F4F01A01C0F12C34FF12C00D
:101B0000B60180E390E03B8B0E94040F3B8932FFDB
:101B100017C031FD03C088E790E002C088E590E07F
:101B2000B6010CC0832F867859F031FF02C08BE2DA
:101B300001C080E237FD8DE2B60190E00E94040F03
:101B4000E11638F4B60180E390E00E94040F1150D2
:101B5000F7CFEA94F301EE0DF11D8081B60190E01C
:101B60000E94040FE110F5CF14C0F4E0FF1558F502
:101B700084E0F81A33FE1EC0211026C003FF2AC0DD
:101B800004EF10E0F32DF0713F2EF80184918111E4
:101B900024C0FF2009F4E5CCB60180E290E00E9469
:101BA000040FFA94F6CFF6018681978126C08FEF55
:101BB0009FEF23C0B60180E290E00E94040FFA94E8
:101BC000F110F8CFD9CFF12CB601822D90E00E9410
:101BD000040FD4CF08EF10E0D5CF31108052B601FA
:101BE00090E00E94040F0F5F1F4FCFCF23E02F150F
:101BF00010F483E0BECFF12CC1CF63960FB6F894FA
:101C0000DEBF0FBECDBFDF91CF911F910F91FF902F
:101C1000EF90DF90CF90BF90AF909F908F907F908C
:101C20006F905F904F903F902F900895283008F06C
:101C300027E03327DA01990F311D87FD9160009667
:101C40006105710539F432602E5F3D9330E32A95CA
:101C5000E1F708959F3F30F080387105610509F084
:101C60003C5F3C5F3D93913008F08068911DDF93AD
:101C7000CF931F930F93FF92EF92192F987F969512
:101C8000E92F96959695E90FFF27EA5AFE4F992777
:101C90003327EE24FF24A701E70105900894079459
:101CA00028F4360FE71EF81E491F511D660F771FD7
:101CB000881F991F0694A1F70590079428F4E70E52
:101CC000F81E491F561FC11D770F881F991F661FD9
:101CD0000694A1F70590079428F4F80E491F561FA3
:101CE000C71FD11D880F991F661F771F0694A1F784
:101CF0000590079420F4490F561FC71FD81F990F4E
:101D0000661F771F881F0694A9F784911095177096
:101D100041F0D695C79557954795F794E7941A954E
:101D2000C1F7ECEFF0E0689415901591359165914D
:101D3000959105907FE27395E118F10A430B560BDC
:101D4000C90BD009C0F7E10CF11E431F561FC91F74
:101D5000D01D7EF4703311F48A95E6CFE8940150DB
:101D600030F0080F0AF40027021708F4202F2395FB
:101D7000022F7A3328F079E37D932A95E9F710C092
:101D80007D932A9589F606949795679537951795CB
:101D90001794E118F10A430B560BC90BD00998F0C0
:101DA00023957E9173957A3308F070E37C9320132A
:101DB000B8F77E9170617D9330F0839571E37D93E8
:101DC00070E32A95E1F71124EF90FF900F911F9196
:101DD000CF91DF91992787FD90950895FC0105909B
:101DE000615070400110D8F7809590958E0F9F1F1D
:101DF0000895FC016150704001900110D8F7809562
:101E000090958E0F9F1F08950F931F93CF93DF938D
:101E1000FB01238121FD03C08FEF9FEF28C022FF2C
:101E200016C046815781248135814217530744F4F7
:101E3000A081B1819D012F5F3F4F318320838C931F
:101E4000268137812F5F3F4F3783268310C0EB01F8
:101E5000092F182F0084F185E02D1995892BE1F6C3
:101E60008E819F8101969F838E83812F902FDF919A
:101E7000CF911F910F910895FA01AA27283051F1AF
:101E8000203181F1E8946F936E7F6E5F7F4F8F4FAB
:101E90009F4FAF4FB1E03ED0B4E03CD0670F781F0A
:101EA000891F9A1FA11D680F791F8A1F911DA11DEF
:101EB0006A0F711D811D911DA11D20D009F4689428
:101EC0003F912AE0269F11243019305D3193DEF6D0
:101ED000CF010895462F4770405D4193B3E00FD086
:101EE000C9F7F6CF462F4F70405D4A3318F0495D71
:101EF00031FD4052419302D0A9F7EACFB4E0A69554
:101F00009795879577956795BA95C9F70097610575
:101F1000710508959B01AC010A2E069457954795CB
:101F200037952795BA95C9F7620F731F841F951FC0
:081F3000A01D0895F894FFCFF5
:101F38001F0A0A000046021F0A0A01004C021F0A73
:101F48000A020052021F0A0A030058021A0A140160
:101F5800005E021F0A0A0300580261626364656634
:101F6800003031323334353637383941424344450D
:101F7800464748494A005541525431005541525448
:101F88003200554152543300554152543400686967
:041F98006768700006
:00000001FF
